{"abi":[{"type":"function","name":"actorIntents","inputs":[{"name":"","type":"address","internalType":"address"},{"name":"","type":"uint256","internalType":"uint256"}],"outputs":[{"name":"","type":"bytes32","internalType":"bytes32"}],"stateMutability":"view"},{"type":"function","name":"cancelIntent","inputs":[{"name":"_intentId","type":"bytes32","internalType":"bytes32"}],"outputs":[],"stateMutability":"nonpayable"},{"type":"function","name":"getActorIntents","inputs":[{"name":"_actor","type":"address","internalType":"address"}],"outputs":[{"name":"intentIds","type":"bytes32[]","internalType":"bytes32[]"}],"stateMutability":"view"},{"type":"function","name":"getIntent","inputs":[{"name":"_intentId","type":"bytes32","internalType":"bytes32"}],"outputs":[{"name":"metadata","type":"tuple","internalType":"struct IntentRegistry.IntentMetadata","components":[{"name":"intentHash","type":"bytes32","internalType":"bytes32"},{"name":"actor","type":"address","internalType":"address"},{"name":"timestamp","type":"uint256","internalType":"uint256"},{"name":"validUntil","type":"uint256","internalType":"uint256"},{"name":"ap2MandateId","type":"bytes32","internalType":"bytes32"},{"name":"settlementAsset","type":"string","internalType":"string"},{"name":"isActive","type":"bool","internalType":"bool"},{"name":"isMatched","type":"bool","internalType":"bool"}]}],"stateMutability":"view"},{"type":"function","name":"intents","inputs":[{"name":"","type":"bytes32","internalType":"bytes32"}],"outputs":[{"name":"intentHash","type":"bytes32","internalType":"bytes32"},{"name":"actor","type":"address","internalType":"address"},{"name":"timestamp","type":"uint256","internalType":"uint256"},{"name":"validUntil","type":"uint256","internalType":"uint256"},{"name":"ap2MandateId","type":"bytes32","internalType":"bytes32"},{"name":"settlementAsset","type":"string","internalType":"string"},{"name":"isActive","type":"bool","internalType":"bool"},{"name":"isMatched","type":"bool","internalType":"bool"}],"stateMutability":"view"},{"type":"function","name":"isIntentValid","inputs":[{"name":"_intentId","type":"bytes32","internalType":"bytes32"}],"outputs":[{"name":"valid","type":"bool","internalType":"bool"}],"stateMutability":"view"},{"type":"function","name":"markAsMatched","inputs":[{"name":"_intentId","type":"bytes32","internalType":"bytes32"}],"outputs":[],"stateMutability":"nonpayable"},{"type":"function","name":"registerIntent","inputs":[{"name":"_intentHash","type":"bytes32","internalType":"bytes32"},{"name":"_validUntil","type":"uint256","internalType":"uint256"},{"name":"_ap2MandateId","type":"bytes32","internalType":"bytes32"},{"name":"_settlementAsset","type":"string","internalType":"string"}],"outputs":[{"name":"intentId","type":"bytes32","internalType":"bytes32"}],"stateMutability":"nonpayable"},{"type":"function","name":"totalIntents","inputs":[],"outputs":[{"name":"","type":"uint256","internalType":"uint256"}],"stateMutability":"view"},{"type":"event","name":"IntentCancelled","inputs":[{"name":"intentId","type":"bytes32","indexed":true,"internalType":"bytes32"},{"name":"actor","type":"address","indexed":true,"internalType":"address"}],"anonymous":false},{"type":"event","name":"IntentMatched","inputs":[{"name":"intentId","type":"bytes32","indexed":true,"internalType":"bytes32"},{"name":"actor","type":"address","indexed":true,"internalType":"address"}],"anonymous":false},{"type":"event","name":"IntentRegistered","inputs":[{"name":"intentId","type":"bytes32","indexed":true,"internalType":"bytes32"},{"name":"intentHash","type":"bytes32","indexed":true,"internalType":"bytes32"},{"name":"actor","type":"address","indexed":true,"internalType":"address"},{"name":"timestamp","type":"uint256","indexed":false,"internalType":"uint256"},{"name":"validUntil","type":"uint256","indexed":false,"internalType":"uint256"},{"name":"ap2MandateId","type":"bytes32","indexed":false,"internalType":"bytes32"},{"name":"settlementAsset","type":"string","indexed":false,"internalType":"string"}],"anonymous":false},{"type":"error","name":"IntentAlreadyExists","inputs":[]},{"type":"error","name":"IntentExpired","inputs":[]},{"type":"error","name":"IntentNotActive","inputs":[]},{"type":"error","name":"IntentNotFound","inputs":[]},{"type":"error","name":"InvalidTimestamp","inputs":[]},{"type":"error","name":"UnauthorizedActor","inputs":[]}],"bytecode":{"object":"0x60808060405234601557610a6f908161001a8239f35b5f80fdfe6080806040526004361015610012575f80fd5b5f3560e01c9081632d6dd29a1461084e5750806361675d61146104b157806364654c3b1461043a5780636f2c97d0146103865780639021578a146102e7578063d06a54f4146102ca578063d55f960d14610233578063f13c46aa146100db5763f9c3e5d41461007f575f80fd5b346100d75760403660031901126100d7576100986108bf565b6001600160a01b03165f908152600160205260409020805460243591908210156100d7576020916100c891610a10565b90549060031b1c604051908152f35b5f80fd5b346100d75760203660031901126100d7576004355f60e06040516100fe8161090d565b828152826020820152826040820152826060820152826080820152606060a08201528260c08201520152805f525f602052600260405f20015415610224575f525f60205260405f206040516101528161090d565b8154815260018060a01b0360018301541691602082019283526002810154906040830191825261020e6003820154916060850192835260048101546080860190815260066101a26005840161094c565b9260a0880193845201549360c087019560ff86161515875260ff60e089019660081c161515865260405198899860208a525160208a015260018060a01b0390511660408901525160608801525160808701525160a08601525161010060c08601526101208501906109ec565b9151151560e08401525115156101008301520390f35b6361ae648360e01b5f5260045ffd5b346100d75760203660031901126100d757600435805f525f60205260405f206002810154156102245760018101546001600160a01b031633036102bb57600601805460ff8116156102ac5760ff1916905533907fac5a4b90e421002a2fdb9f132b9b32c24fa4ae16ec480516c85932de208d2a335f80a3005b63414c060160e01b5f5260045ffd5b63dd9fb7b760e01b5f5260045ffd5b346100d7575f3660031901126100d7576020600254604051908152f35b346100d75760203660031901126100d7576004355f525f60205260405f20805460018060a01b036001830154169160ff61036c600283015492600381015460048201549060066103396005850161094c565b930154956040519889988952602089015260408801526060870152608086015261010060a08601526101008501906109ec565b91818116151560c085015260081c16151560e08301520390f35b346100d75760203660031901126100d7576001600160a01b036103a76108bf565b165f52600160205260405f20604051806020835491828152019081935f5260205f20905f5b81811061042457505050816103e291038261092a565b604051918291602083019060208452518091526040830191905f5b81811061040b575050500390f35b82518452859450602093840193909201916001016103fd565b82548452602090930192600192830192016103cc565b346100d75760203660031901126100d757600435805f525f60205260405f206002810154156102245760068101805460ff8116156102ac5761ff001916610100179055600101546001600160a01b0316907ff01cdb9d77e2a2a64bf9def218e4c942a1aa7d3ba4c257b0fa32ae1230b550085f80a3005b346100d75760803660031901126100d75760443560643560243560043567ffffffffffffffff83116100d757366023840112156100d757826004013567ffffffffffffffff81116100d757602484019360248236920101116100d7574283111561083f5760025460405160208101918483523360601b604083015242605483015260748201526074815261054660948261092a565b51902093845f525f602052600260405f200154610830576040519361056a8561090d565b838552602085013381526040860190428252606087019683885260808101978a8952601f19601f88011698604051916105a660208c018461092a565b888352888860208501375f60208a8501015260a0840192835260c08401956001875260e08501955f87528d5f525f60205260405f2095518655600186019060018060a01b039051166bffffffffffffffffffffffff60a01b82541617905551600285015551600384015551600483015560058201905180519067ffffffffffffffff82116107655761063883546108d5565b601f81116107eb575b50602090601f8311600114610784576006949392915f9183610779575b50508160011b915f199060031b1c19161790555b019151151560ff8019845416911617825551151561ff0082549160081b169061ff001916179055335f52600160205260405f20805468010000000000000000811015610765576106c791600182018155610a10565b81549060031b9088821b915f19901b1916179055600254915f1983146107515760a08488955f9360209b60017fa8dfe0a537e9d2b16f1322de8b48561498ef85d3a8afa9e31d4bd71cc35900db9801600255604051964288528d880152604087015260806060870152816080870152838601378301015260a08133968101030190a4604051908152f35b634e487b7160e01b5f52601160045260245ffd5b634e487b7160e01b5f52604160045260245ffd5b015190508e8061065e565b90601f19831691845f52815f20925f5b8181106107d35750916001939185600698979694106107bb575b505050811b019055610672565b01515f1960f88460031b161c191690558e80806107ae565b92936020600181928786015181550195019301610794565b835f5260205f20601f840160051c81019160208510610826575b601f0160051c01905b81811061081b5750610641565b5f815560010161080e565b9091508190610805565b6302b000c160e21b5f5260045ffd5b63b7d0949760e01b5f5260045ffd5b346100d75760203660031901126100d7576020906004355f525f825260405f206002810154151590816108b0575b8161089d575b8161088f575b5015158152f35b600391500154421083610888565b600681015460081c60ff16159150610882565b600681015460ff16915061087c565b600435906001600160a01b03821682036100d757565b90600182811c92168015610903575b60208310146108ef57565b634e487b7160e01b5f52602260045260245ffd5b91607f16916108e4565b610100810190811067ffffffffffffffff82111761076557604052565b90601f8019910116810190811067ffffffffffffffff82111761076557604052565b9060405191825f82549261095f846108d5565b80845293600181169081156109ca5750600114610986575b506109849250038361092a565b565b90505f9291925260205f20905f915b8183106109ae575050906020610984928201015f610977565b6020919350806001915483858901015201910190918492610995565b90506020925061098494915060ff191682840152151560051b8201015f610977565b805180835260209291819084018484015e5f828201840152601f01601f1916010190565b8054821015610a25575f5260205f2001905f90565b634e487b7160e01b5f52603260045260245ffdfea26469706673582212207eea01e3d12c238a8cd85e9c8ae93c97930b22de2e5fdddd9ebfc63bc1045a6c64736f6c634300081a0033","linkReferences":{}},"methodIdentifiers":{"actorIntents(address,uint256)":"f9c3e5d4","cancelIntent(bytes32)":"d55f960d","getActorIntents(address)":"6f2c97d0","getIntent(bytes32)":"f13c46aa","intents(bytes32)":"9021578a","isIntentValid(bytes32)":"2d6dd29a","markAsMatched(bytes32)":"64654c3b","registerIntent(bytes32,uint256,bytes32,string)":"61675d61","totalIntents()":"d06a54f4"},"id":23}