{"abi":[{"type":"constructor","inputs":[{"name":"_intentRegistry","type":"address","internalType":"address"},{"name":"_paymentRouter","type":"address","internalType":"address"}],"stateMutability":"nonpayable"},{"type":"function","name":"DISPUTE_WINDOW","inputs":[],"outputs":[{"name":"","type":"uint256","internalType":"uint256"}],"stateMutability":"view"},{"type":"function","name":"SETTLEMENT_TIMEOUT","inputs":[],"outputs":[{"name":"","type":"uint256","internalType":"uint256"}],"stateMutability":"view"},{"type":"function","name":"cancelMatch","inputs":[{"name":"_matchId","type":"bytes32","internalType":"bytes32"}],"outputs":[],"stateMutability":"nonpayable"},{"type":"function","name":"createMatch","inputs":[{"name":"_bidIntentId","type":"bytes32","internalType":"bytes32"},{"name":"_askIntentId","type":"bytes32","internalType":"bytes32"},{"name":"_matchPrice","type":"uint256","internalType":"uint256"}],"outputs":[{"name":"matchId","type":"bytes32","internalType":"bytes32"}],"stateMutability":"nonpayable"},{"type":"function","name":"disputeMatch","inputs":[{"name":"_matchId","type":"bytes32","internalType":"bytes32"},{"name":"_reason","type":"string","internalType":"string"}],"outputs":[],"stateMutability":"nonpayable"},{"type":"function","name":"escrowBalances","inputs":[{"name":"","type":"bytes32","internalType":"bytes32"},{"name":"","type":"address","internalType":"address"}],"outputs":[{"name":"","type":"uint256","internalType":"uint256"}],"stateMutability":"view"},{"type":"function","name":"fundEscrow","inputs":[{"name":"_matchId","type":"bytes32","internalType":"bytes32"}],"outputs":[],"stateMutability":"payable"},{"type":"function","name":"getEscrowBalance","inputs":[{"name":"_matchId","type":"bytes32","internalType":"bytes32"},{"name":"_party","type":"address","internalType":"address"}],"outputs":[{"name":"balance","type":"uint256","internalType":"uint256"}],"stateMutability":"view"},{"type":"function","name":"getMatch","inputs":[{"name":"_matchId","type":"bytes32","internalType":"bytes32"}],"outputs":[{"name":"matchData","type":"tuple","internalType":"struct AuctionEscrow.Match","components":[{"name":"bidIntentId","type":"bytes32","internalType":"bytes32"},{"name":"askIntentId","type":"bytes32","internalType":"bytes32"},{"name":"bidder","type":"address","internalType":"address"},{"name":"asker","type":"address","internalType":"address"},{"name":"matchPrice","type":"uint256","internalType":"uint256"},{"name":"bidAmount","type":"uint256","internalType":"uint256"},{"name":"askAmount","type":"uint256","internalType":"uint256"},{"name":"createdAt","type":"uint256","internalType":"uint256"},{"name":"settleBy","type":"uint256","internalType":"uint256"},{"name":"status","type":"uint8","internalType":"enum AuctionEscrow.MatchStatus"},{"name":"ap2ProofHash","type":"bytes32","internalType":"bytes32"}]}],"stateMutability":"view"},{"type":"function","name":"intentRegistry","inputs":[],"outputs":[{"name":"","type":"address","internalType":"contract IntentRegistry"}],"stateMutability":"view"},{"type":"function","name":"matches","inputs":[{"name":"","type":"bytes32","internalType":"bytes32"}],"outputs":[{"name":"bidIntentId","type":"bytes32","internalType":"bytes32"},{"name":"askIntentId","type":"bytes32","internalType":"bytes32"},{"name":"bidder","type":"address","internalType":"address"},{"name":"asker","type":"address","internalType":"address"},{"name":"matchPrice","type":"uint256","internalType":"uint256"},{"name":"bidAmount","type":"uint256","internalType":"uint256"},{"name":"askAmount","type":"uint256","internalType":"uint256"},{"name":"createdAt","type":"uint256","internalType":"uint256"},{"name":"settleBy","type":"uint256","internalType":"uint256"},{"name":"status","type":"uint8","internalType":"enum AuctionEscrow.MatchStatus"},{"name":"ap2ProofHash","type":"bytes32","internalType":"bytes32"}],"stateMutability":"view"},{"type":"function","name":"paymentRouter","inputs":[],"outputs":[{"name":"","type":"address","internalType":"contract PaymentRouter"}],"stateMutability":"view"},{"type":"function","name":"settleMatch","inputs":[{"name":"_matchId","type":"bytes32","internalType":"bytes32"},{"name":"_ap2ProofHash","type":"bytes32","internalType":"bytes32"},{"name":"_stripePaymentIntentId","type":"string","internalType":"string"}],"outputs":[],"stateMutability":"nonpayable"},{"type":"event","name":"EscrowFunded","inputs":[{"name":"matchId","type":"bytes32","indexed":true,"internalType":"bytes32"},{"name":"party","type":"address","indexed":true,"internalType":"address"},{"name":"amount","type":"uint256","indexed":false,"internalType":"uint256"}],"anonymous":false},{"type":"event","name":"FundsReleased","inputs":[{"name":"matchId","type":"bytes32","indexed":true,"internalType":"bytes32"},{"name":"recipient","type":"address","indexed":true,"internalType":"address"},{"name":"amount","type":"uint256","indexed":false,"internalType":"uint256"}],"anonymous":false},{"type":"event","name":"MatchCancelled","inputs":[{"name":"matchId","type":"bytes32","indexed":true,"internalType":"bytes32"}],"anonymous":false},{"type":"event","name":"MatchCreated","inputs":[{"name":"matchId","type":"bytes32","indexed":true,"internalType":"bytes32"},{"name":"bidIntentId","type":"bytes32","indexed":true,"internalType":"bytes32"},{"name":"askIntentId","type":"bytes32","indexed":true,"internalType":"bytes32"},{"name":"bidder","type":"address","indexed":false,"internalType":"address"},{"name":"asker","type":"address","indexed":false,"internalType":"address"},{"name":"matchPrice","type":"uint256","indexed":false,"internalType":"uint256"}],"anonymous":false},{"type":"event","name":"MatchDisputed","inputs":[{"name":"matchId","type":"bytes32","indexed":true,"internalType":"bytes32"},{"name":"initiator","type":"address","indexed":true,"internalType":"address"},{"name":"reason","type":"string","indexed":false,"internalType":"string"}],"anonymous":false},{"type":"event","name":"MatchSettled","inputs":[{"name":"matchId","type":"bytes32","indexed":true,"internalType":"bytes32"},{"name":"ap2ProofHash","type":"bytes32","indexed":false,"internalType":"bytes32"}],"anonymous":false},{"type":"error","name":"DisputeWindowExpired","inputs":[]},{"type":"error","name":"InsufficientEscrow","inputs":[]},{"type":"error","name":"InvalidIntents","inputs":[]},{"type":"error","name":"InvalidMatchStatus","inputs":[]},{"type":"error","name":"InvalidPaymentProof","inputs":[]},{"type":"error","name":"MatchAlreadyExists","inputs":[]},{"type":"error","name":"MatchNotFound","inputs":[]},{"type":"error","name":"SettlementTimeoutNotReached","inputs":[]},{"type":"error","name":"UnauthorizedParty","inputs":[]}],"bytecode":{"object":"0x60c034608b57601f61130f38819003918201601f19168301916001600160401b03831184841017608f578084926040948552833981010312608b57604b602060458360a3565b920160a3565b6001600160a01b039182166080521660a05260405161125890816100b782396080518181816108ff0152610fa5015260a05181818160c20152610dd30152f35b5f80fd5b634e487b7160e01b5f52604160045260245ffd5b51906001600160a01b0382168203608b5756fe6080806040526004361015610012575f80fd5b5f905f3560e01c9081633c0a6e3814610fd457508063421526d214610f905780636e03074b14610d315780637c1186cd146108da5780639cb11a28146107ee5780639fe9ada314610826578063c754e91f146107ee578063c82db8f9146105a3578063f585dc5714610585578063f8e65d6114610428578063f9fb0035146102af578063fcc6077d146100f45763ff781bbf146100ad575f80fd5b346100f157806003193601126100f1576040517f00000000000000000000000000000000000000000000000000000000000000006001600160a01b03168152602090f35b80fd5b50346100f15760203660031901126100f1576004358161014060405161011981611050565b8281528260208201528260408201528260608201528260808201528260a08201528260c08201528260e082015282610100820152826101208201520152808252816020526007604083200154156102a057815280602052604081206040519061018182611050565b805482526001810154906020830191825260018060a01b036002820154166040840190815260018060a01b036003830154166060850190815260048301546080860190815260058401549060a0870191825260068501549260c0880193845260078601549460e089019586526008870154966101008a0197885260ff6009820154166101208b019b600582101561028c57508b52600a01546101408a01908152604080519a518b52985160208b015290516001600160a01b03908116988a0198909852905190961660608801525160808701525160a08601525160c08501525160e0840152516101008301529151610160929061028390610120840190611043565b51610140820152f35b634e487b7160e01b81526021600452602490fd5b631632113760e31b8252600482fd5b50346100f15760403660031901126100f15760043560243567ffffffffffffffff8111610424576102e4903690600401610fef565b919081845283602052604084206007810154801561041557600982019160ff835416600581101561040157600181141590816103f5575b506103e65760028101546001600160a01b031633141590816103ce575b506103bf576201518081018091116103ab57421161039c57805460ff19166003179055604051602080825233947f2954aff4db94908540610a6cca0923d9b341aff8097f9044ffc57c3caec38efc93839261039692908401916110b0565b0390a380f35b63234c0ffd60e21b8552600485fd5b634e487b7160e01b86526011600452602486fd5b63277d24cb60e01b8652600486fd5b600301546001600160a01b031633141590505f610338565b636bc0f2cb60e11b8752600487fd5b6002915014155f61031b565b634e487b7160e01b88526021600452602488fd5b631632113760e31b8652600486fd5b8280fd5b5060203660031901126100f157600435808252816020526040822060078101541561057657600981019160ff835416600581101561056257610553576004820154906002830160018060a01b038154163314158061053c575b6103bf5782341061052d57818652600160209081526040808820335f818152919093522034905590546001600160a01b031603610522573460058401555b604051903482527fb0f7b6ab70e0186c433938ee752b2498a7cab42018e6bf7596cd704c81c470bc60203393a380600583015410159182610513575b5050610505575080f35b805460ff1916600117905580f35b60060154101590505f806104fb565b3460068401556104bf565b631217157160e31b8652600486fd5b5060038401546001600160a01b0316331415610481565b636bc0f2cb60e11b8452600484fd5b634e487b7160e01b85526021600452602485fd5b631632113760e31b8352600483fd5b50346100f157806003193601126100f1576020604051620151808152f35b50346100f15760203660031901126100f157600435808252816020526040822060078101541561057657600881015442106107df576009810160ff81541660058110156105625760021461055357805460ff191660041790558183526001602081815260408086206002850180546001600160a01b039081165f81815293865284842054898b52878752858b206003909901805484168652988752858520548a8c52888852868c209286529187528585208b9055898b52968652848a208854909216845294529190208690559092919081610744575b5050816106aa575b50507f385b367e95b63f352da2c4d675afb41c35f2a4015b1073178876bdc24a1b63b38280a280f35b838080808560018060a01b038654165af16106c36110ec565b501561070957546040519182526001600160a01b03169082907f75d86e5bfa1175e2dc677f3abe3aebba3069f2db6ae492f1734d4b4bc65f61c190602090a35f80610681565b60405162461bcd60e51b8152602060048201526013602482015272105cdad95c881c99599d5b990819985a5b1959606a1b6044820152606490fd5b858080808560018060a01b038654165af161075d6110ec565b50156107a357546040519182526001600160a01b03169084907f75d86e5bfa1175e2dc677f3abe3aebba3069f2db6ae492f1734d4b4bc65f61c190602090a35f80610679565b60405162461bcd60e51b8152602060048201526014602482015273109a5919195c881c99599d5b990819985a5b195960621b6044820152606490fd5b63299a3cf360e11b8352600483fd5b50346100f15760406107ff3661101d565b929081526001602052209060018060a01b03165f52602052602060405f2054604051908152f35b50346100f15760203660031901126100f157604061016091600435815280602052208054906108d260018201549160018060a01b0360028201541660018060a01b0360038301541660048301546005840154600685015491600786015493600887015495600a60ff60098a015416980154996040519b8c5260208c015260408b015260608a0152608089015260a088015260c087015260e0860152610100850152610120840190611043565b610140820152f35b5034610c33576060366003190112610c33576004356024356044359160018060a01b037f000000000000000000000000000000000000000000000000000000000000000016926040516316b6e94d60e11b8152826004820152602081602481885afa908115610c28575f91610cf7575b5015610cae576040516316b6e94d60e11b815260048101849052602081602481885afa908115610c28575f91610cbd575b5015610cae5760405163789e235560e11b815260048101839052935f85602481845afa948515610c28575f95610c92575b5060405163789e235560e11b815260048101859052955f87602481855afa968715610c28575f97610c6e575b50604051602081019085825286604082015284606082015242608082015260808152610a0560a082611081565b51902095865f525f602052600760405f200154610c5f5760200191602060018060a01b0384511698019760018060a01b038951166202a3004201804211610c4b57899060405193610a5585611050565b89855260208086018c8152604080880193845260608801968752608088018c81525f60a08a0181815260c08b018281524260e08d019081526101008d01998a526101208d018481526101408e018581529b855297849052949092209a518b55935160018b0155945160028a0180546001600160a01b03199081166001600160a01b0393841617909155985160038b018054909a1691161790975595516004880155516005808801919091559151600687015593516007860155905160088501559151916009840190831015610c3757600a9260ff8019835416911617905551910155803b15610c33576040516364654c3b60e01b8152600481018690525f8160248183865af18015610c2857610c13575b50803b15610c0f578180916024604051809481936364654c3b60e01b83528b60048401525af18015610c0457610bef575b5050606060209686937f8ad0e102e931445a65560c20e10c9cd827d81f0bce33329522fe6dc1dfdb610f9360018060a01b039051169160018060a01b03905116604051928352898301526040820152a4604051908152f35b610bfa828092611081565b6100f15780610b97565b6040513d84823e3d90fd5b5080fd5b610c209192505f90611081565b5f905f610b66565b6040513d5f823e3d90fd5b5f80fd5b634e487b7160e01b5f52602160045260245ffd5b634e487b7160e01b5f52601160045260245ffd5b63fc2bc70d60e01b5f5260045ffd5b610c8b9197503d805f833e610c838183611081565b81019061111b565b955f6109d8565b610ca79195503d805f833e610c838183611081565b935f6109ac565b633323173760e01b5f5260045ffd5b90506020813d602011610cef575b81610cd860209383611081565b81010312610c3357610ce9906110a3565b5f61097b565b3d9150610ccb565b90506020813d602011610d29575b81610d1260209383611081565b81010312610c3357610d23906110a3565b5f61094a565b3d9150610d05565b34610c33576060366003190112610c335760243560043560443567ffffffffffffffff8111610c3357610d68903690600401610fef565b825f525f60205260405f2091600783015415610f8157600983019160ff8354166005811015610c3757600103610f7257610dc79160209160048601546040519485938493630554dfef60e41b85526040600486015260448501916110b0565b602483019190915203817f00000000000000000000000000000000000000000000000000000000000000006001600160a01b03165afa908115610c28575f91610f38575b5015610f2957600260ff1982541617905582600a82015560058101549260068201548401809411610c4b575f8381526001602090815260408083206003860180546001600160a01b03908116865291909352818420849055600290950154851683528220829055805490938291829182918991165af1610e896110ec565b5015610ef2577f75d86e5bfa1175e2dc677f3abe3aebba3069f2db6ae492f1734d4b4bc65f61c191837fb9b89fa866ae8cd3fbca1dfd60478de1ee83543d1042fd4d5ea0de8e3e1a7dd160208094604051908152a2546040519485526001600160a01b031693a3005b60405162461bcd60e51b815260206004820152600f60248201526e151c985b9cd9995c8819985a5b1959608a1b6044820152606490fd5b63dd68042d60e01b5f5260045ffd5b90506020813d602011610f6a575b81610f5360209383611081565b81010312610c3357610f64906110a3565b85610e0b565b3d9150610f46565b636bc0f2cb60e11b5f5260045ffd5b631632113760e31b5f5260045ffd5b34610c33575f366003190112610c33576040517f00000000000000000000000000000000000000000000000000000000000000006001600160a01b03168152602090f35b34610c33575f366003190112610c3357806202a30060209252f35b9181601f84011215610c335782359167ffffffffffffffff8311610c335760208381860195010111610c3357565b6040906003190112610c3357600435906024356001600160a01b0381168103610c335790565b906005821015610c375752565b610160810190811067ffffffffffffffff82111761106d57604052565b634e487b7160e01b5f52604160045260245ffd5b90601f8019910116810190811067ffffffffffffffff82111761106d57604052565b51908115158203610c3357565b908060209392818452848401375f828201840152601f01601f1916010190565b67ffffffffffffffff811161106d57601f01601f191660200190565b3d15611116573d906110fd826110d0565b9161110b6040519384611081565b82523d5f602084013e565b606090565b602081830312610c335780519067ffffffffffffffff8211610c3357019061010082820312610c335760405191610100830183811067ffffffffffffffff82111761106d576040528051835260208101516001600160a01b0381168103610c3357602084015260408101516040840152606081015160608401526080810151608084015260a081015167ffffffffffffffff8111610c335781019082601f83011215610c33578151926111cd846110d0565b906111db6040519283611081565b84825260208585010111610c33575f60208561121a968260e097018386015e8301015260a085015261120f60c082016110a3565b60c0850152016110a3565b60e08201529056fea2646970667358221220678a32dab58b7952040ce92552a45eb49a67ed5c5f6b8fab43d511cf03c451fa64736f6c634300081a0033","linkReferences":{}},"methodIdentifiers":{"DISPUTE_WINDOW()":"f585dc57","SETTLEMENT_TIMEOUT()":"3c0a6e38","cancelMatch(bytes32)":"c82db8f9","createMatch(bytes32,bytes32,uint256)":"7c1186cd","disputeMatch(bytes32,string)":"f9fb0035","escrowBalances(bytes32,address)":"c754e91f","fundEscrow(bytes32)":"f8e65d61","getEscrowBalance(bytes32,address)":"9cb11a28","getMatch(bytes32)":"fcc6077d","intentRegistry()":"421526d2","matches(bytes32)":"9fe9ada3","paymentRouter()":"ff781bbf","settleMatch(bytes32,bytes32,string)":"6e03074b"},"id":21}